:100000000C9461000C947E000C947E000C947E0095
:100010000C947E000C947E000C947E000C947E0068
:100020000C947E000C947E000C947E000C947E0058
:100030000C947E000C947E000C947E000C947E0048
:100040000C94B3000C947E000C947E000C947E0003
:100050000C947E000C947E000C947E000C947E0028
:100060000C947E000C947E00000000002400270009
:100070002A0000000000250028002B0000000000DE
:1000800023002600290004040404040404040202DA
:100090000202020203030303030301020408102007
:1000A0004080010204081020010204081020000012
:1000B0000007000201000003040600000000000029
:1000C000000011241FBECFEFD8E0DEBFCDBF11E08E
:1000D000A0E0B1E0EAE3F4E002C005900D92A030A8
:1000E000B107D9F711E0A0E0B1E001C01D92AB303B
:1000F000B107E1F70E94AC000C941B020C940000C5
:1001000087E00E94CC019093010180930001019748
:1001100029F48DE060E00E947F0108958DE061E0A8
:100120000E947F0166E970E080E090E00E94FB00A1
:100130008DE060E00E947F0166E970E080E090E081
:100140000E94FB0008958DE061E00E945F0187E05E
:1001500060E00E945F0108950E9425010E94A300B3
:100160000E948000FDCF1F920F920FB60F921124B4
:100170002F933F938F939F93AF93BF9380910601EB
:1001800090910701A0910801B091090130910A01F5
:100190000196A11DB11D232F2D5F2D3720F02D5766
:1001A0000196A11DB11D20930A0180930601909331
:1001B0000701A0930801B093090180910201909179
:1001C0000301A0910401B09105010196A11DB11D8B
:1001D0008093020190930301A0930401B093050161
:1001E000BF91AF919F918F913F912F910F900FBE33
:1001F0000F901F901895EF92FF920F931F937B0122
:100200008C018FB7F89440910601509107016091DD
:100210000801709109018FBF2FB7F89480910601F2
:1002200090910701A0910801B09109012FBF841B93
:10023000950BA60BB70BE816F9060A071B0760F724
:100240001F910F91FF90EF900895789484B582608C
:1002500084BD84B5816084BD85B5826085BD85B56A
:10026000816085BDEEE6F0E0808181608083E1E819
:10027000F0E0808182608083808181608083E0E81B
:10028000F0E0808181608083E1EBF0E08081846038
:100290008083E0EBF0E0808181608083EAE7F0E03A
:1002A000808184608083808182608083808181609E
:1002B00080838081806880831092C1000895282FF8
:1002C00030E0C90186569F4FFC0194912A573F4F59
:1002D000F9018491882391F0E82FF0E0EE0FFF1FE1
:1002E000E859FF4FA591B491662329F48C9190951C
:1002F00089238C9308958C91892B8C930895482F92
:1003000050E0CA0182559F4FFC012491CA018656D4
:100310009F4FFC0194914A575F4FFA013491332368
:10032000D1F1222331F1233021F4809180008F77A5
:1003300005C0243031F4809180008F7D809380004F
:1003400018C0213019F484B58F7704C0223021F40D
:1003500084B58F7D84BD0DC0263021F48091B0001E
:100360008F7705C0273029F48091B0008F7D80936E
:10037000B000E32FF0E0EE0FFF1FEE58FF4FA59106
:10038000B491662329F48C91909589238C930895D8
:100390008C91892B8C930895682F70E0CB01825546
:1003A0009F4FFC012491CB0186569F4FFC01449145
:1003B0006A577F4FFB019491992319F420E030E0B4
:1003C00038C0222331F1233021F4809180008F77CF
:1003D00005C0243031F4809180008F7D80938000AF
:1003E00018C0213019F484B58F7704C0223021F46D
:1003F00084B58F7D84BD0DC0263021F48091B0007E
:100400008F7705C0273029F48091B0008F7D8093CD
:10041000B000892F90E0880F991F84589F4FFC01EE
:10042000A591B4918C9120E030E0842311F021E07B
:0A04300030E0C9010895F894FFCFF1
:00000001FF
