:100000000C9461000C947E000C947E000C947E0095
:100010000C947E000C947E000C947E000C947E0068
:100020000C947E000C947E000C947E000C947E0058
:100030000C947E000C947E000C947E000C947E0048
:100040000C94C7000C947E000C947E000C947E00EF
:100050000C947E000C947E000C947E000C947E0028
:100060000C947E000C947E00000000002400270009
:100070002A0000000000250028002B0000000000DE
:1000800023002600290004040404040404040202DA
:100090000202020203030303030301020408102007
:1000A0004080010204081020010204081020000012
:1000B0000007000201000003040600000000000029
:1000C000000011241FBECFEFD8E0DEBFCDBF11E08E
:1000D000A0E0B1E0E2E6F4E002C005900D92A030AD
:1000E000B107D9F711E0A0E0B1E001C01D92AF3037
:1000F000B107E1F70E94C0000C942F020C9400009D
:1001000087E00E94E0019C0190930101809300012F
:1001100081309105B1F48091020190910301892B06
:1001200081F48091040190910501281B390B3093D3
:100130000501209304016AE070E080E090E00E94F5
:100140000F01809100019091010190930301809330
:1001500002018091040190910501019719F48DE04D
:1001600061E002C08DE060E00E94930108958DE09F
:1001700061E00E94730187E060E00E9473010895CE
:100180000E9439010E94B7000E948000FDCF1F929B
:100190000F920FB60F9211242F933F938F939F933B
:1001A000AF93BF9380910A0190910B01A0910C0134
:1001B000B0910D0130910E010196A11DB11D232FAB
:1001C0002D5F2D3720F02D570196A11DB11D2093D5
:1001D0000E0180930A0190930B01A0930C01B09340
:1001E0000D018091060190910701A0910801B09145
:1001F00009010196A11DB11D80930601909307018D
:10020000A0930801B0930901BF91AF919F918F9185
:100210003F912F910F900FBE0F901F901895EF9266
:10022000FF920F931F937B018C018FB7F89440913D
:100230000A0150910B0160910C0170910D018FBF6B
:100240002FB7F89480910A0190910B01A0910C01B5
:10025000B0910D012FBF841B950BA60BB70BE816B1
:10026000F9060A071B0760F71F910F91FF90EF90A7
:100270000895789484B5826084BD84B5816084BD1E
:1002800085B5826085BD85B5816085BDEEE6F0E00F
:10029000808181608083E1E8F0E0808182608083FA
:1002A000808181608083E0E8F0E0808181608083EC
:1002B000E1EBF0E0808184608083E0EBF0E080811E
:1002C00081608083EAE7F0E08081846080838081C0
:1002D0008260808380818160808380818068808368
:1002E0001092C1000895282F30E0C90186569F4F13
:1002F000FC0194912A573F4FF9018491882391F092
:10030000E82FF0E0EE0FFF1FE859FF4FA591B491E1
:10031000662329F48C91909589238C9308958C9170
:10032000892B8C930895482F50E0CA0182559F4F26
:10033000FC012491CA0186569F4FFC0194914A57B3
:100340005F4FFA0134913323D1F1222331F123306D
:1003500021F4809180008F7705C0243031F48091A2
:1003600080008F7D8093800018C0213019F484B5FF
:100370008F7704C0223021F484B58F7D84BD0DC0F9
:10038000263021F48091B0008F7705C0273029F402
:100390008091B0008F7D8093B000E32FF0E0EE0FEE
:1003A000FF1FEE58FF4FA591B491662329F48C915D
:1003B000909589238C9308958C91892B8C93089523
:1003C000682F70E0CB0182559F4FFC012491CB0137
:1003D00086569F4FFC0144916A577F4FFB019491D1
:1003E000992319F420E030E038C0222331F1233082
:1003F00021F4809180008F7705C0243031F4809102
:1004000080008F7D8093800018C0213019F484B55E
:100410008F7704C0223021F484B58F7D84BD0DC058
:10042000263021F48091B0008F7705C0273029F461
:100430008091B0008F7D8093B000892F90E0880F6D
:10044000991F84589F4FFC01A591B4918C9120E095
:1004500030E0842311F021E030E0C9010895F894E0
:02046000FFCFCC
:00000001FF
