:100000000C9462000C948A000C948A000C948A0070
:100010000C948A000C948A000C948A000C948A0038
:100020000C948A000C948A000C948A000C948A0028
:100030000C948A000C948A000C948A000C948A0018
:100040000C94E4000C948A000C941B020C948A001B
:100050000C948A000C948A000C948A000C948A00F8
:100060000C948A000C948A000000000024002700F1
:100070002A0000000000250028002B0000000000DE
:1000800023002600290004040404040404040202DA
:100090000202020203030303030301020408102007
:1000A0004080010204081020010204081020000012
:1000B0000007000201000003040600000000000029
:1000C0000000640311241FBECFEFD8E0DEBFCDBF18
:1000D00011E0A0E0B1E0E4E1F9E002C005900D928A
:1000E000A031B107D9F711E0A0E1B1E001C01D9244
:1000F000A63BB107E1F710E0C4ECD0E004C02297C2
:10010000FE010E948404C23CD107C9F70E94DD00B1
:100110000C9488040C940000809114010E949001BA
:1001200090931301809312010B978CF060EA7FE0AB
:1001300080E090E00E942C0181E090E0909311011A
:100140008093100183EA91E060E071E00EC060EA04
:100150007FE080E090E00E942C011092110110924B
:10016000100183EA91E062E071E00E94F403809163
:10017000100190911101892B31F484E060E00E941C
:10018000CE0183E005C083E060E00E94CE0184E000
:1001900061E00E94CE01089583E061E00E94AE011B
:1001A00084E061E00E94AE0183EA91E040E855E21C
:1001B00060E070E00E94580208950E9456010E947B
:1001C000CC000E948C00FDCF1F920F920FB60F92B1
:1001D00011242F933F938F939F93AF93BF9380915D
:1001E0001A0190911B01A0911C01B0911D01309149
:1001F0001E010196A11DB11D232F2D5F2D3720F06B
:100200002D570196A11DB11D20931E0180931A0147
:1002100090931B01A0931C01B0931D0180911601C6
:1002200090911701A0911801B09119010196A11D9B
:10023000B11D8093160190931701A0931801B093FC
:100240001901BF91AF919F918F913F912F910F9085
:100250000FBE0F901F901895EF92FF920F931F9370
:100260007B018C018FB7F89440911A0150911B01CA
:1002700060911C0170911D018FBF2FB7F894809180
:100280001A0190911B01A0911C01B0911D012FBF7B
:10029000841B950BA60BB70BE816F9060A071B077C
:1002A00060F71F910F91FF90EF900895789484B5B7
:1002B000826084BD84B5816084BD85B5826085BD62
:1002C00085B5816085BDEEE6F0E080818160808348
:1002D000E1E8F0E0808182608083808181608083BA
:1002E000E0E8F0E0808181608083E1EBF0E08081F4
:1002F00084608083E0EBF0E0808181608083EAE7C6
:10030000F0E080818460808380818260808380814E
:10031000816080838081806880831092C10008950D
:100320008F70909104019295990F990F907C982B62
:1003300090937C0080917A00806480937A00809111
:100340007A0086FDFCCF2091780040917900942FAF
:1003500080E030E0282B392BC9010895282F30E0A8
:10036000C90186569F4FFC0194912A573F4FF901CE
:100370008491882391F0E82FF0E0EE0FFF1FE859F9
:10038000FF4FA591B491662329F48C919095892310
:100390008C9308958C91892B8C930895482F50E06D
:1003A000CA0182559F4FFC012491CA0186569F4F76
:1003B000FC0194914A575F4FFA0134913323D1F1F4
:1003C000222331F1233021F4809180008F7705C002
:1003D000243031F4809180008F7D8093800018C09C
:1003E000213019F484B58F7704C0223021F484B50C
:1003F0008F7D84BD0DC0263021F48091B0008F77B1
:1004000005C0273029F48091B0008F7D8093B00023
:10041000E32FF0E0EE0FFF1FEE58FF4FA591B491D0
:10042000662329F48C91909589238C9308958C915F
:10043000892B8C9308951F920F920FB60F9211245F
:100440002F933F934F935F936F937F938F939F93DC
:10045000AF93BF93EF93FF934091C600E0919F014C
:10046000F091A001CF01019660E870E00E941E04A7
:100470009C018091A1019091A2012817390739F0C0
:10048000E15EFE4F40833093A00120939F01FF91D6
:10049000EF91BF91AF919F918F917F916F915F91FC
:1004A0004F913F912F910F900FBE0F901F90189575
:1004B0005F926F927F928F929F92AF92BF92CF92F4
:1004C000DF92EF92FF920F931F93CF93DF93EC0194
:1004D0003A014B01413482E458078FE0680780E01D
:1004E00078070CF07FC060E874E88EE190E0A4012A
:1004F00093010E9453042150304040405040CA01B3
:10050000B90122E030E040E050E00E94530459017C
:100510006A01A6019501209530954095509594E08B
:10052000220F331F441F551F9A95D1F760E074E2E4
:1005300084EF90E00E945304CA01B9012FEF30E02C
:1005400040E050E00E94FF03A40193010E94530485
:10055000C90181509F4F181619061CF4522E5A9447
:1005600003C055245394521A60E079E08DE390E083
:10057000A40193010E945304215030404040504058
:10058000CA01B90122E030E040E050E00E9453048B
:10059000209530954095509583E0220F331F441FDE
:1005A000551F8A95D1F760E074E284EF90E00E94D5
:1005B0005304CA01B9012FEF30E040E050E00E943F
:1005C000FF03A40193010E945304C90181509F4F6E
:1005D000181619061CF4822F815002C081E0821B7C
:1005E000851500F5E885F98581E090E00A8802C06C
:1005F000880F991F0A94E2F7808360E079E08DE329
:1006000090E0A40193010E945304215030404040E7
:100610005040CA01B90122E030E040E050E00E94C1
:10062000530404C0E885F98510829501EC81FD81B1
:100630003083EE81FF812083EA85FB85208141E0C4
:1006400050E0CA010E8402C0880F991F0A94E2F795
:10065000282B2083EA85FB852081CA010F8402C0F4
:10066000880F991F0A94E2F7282B2083EA85FB85DF
:100670008081088802C0440F551F0A94E2F7842B3A
:100680008083DF91CF911F910F91FF90EF90DF90CA
:10069000CF90BF90AF909F908F907F906F905F9022
:1006A0000895FC01A085B18521898C9190E0022EEE
:1006B00002C0959587950A94E2F780FFF6CF0484EF
:1006C000F585E02D6083089589E091E09093A40181
:1006D0008093A3018FE191E09093A6018093A501FF
:1006E00085EC90E09093A8018093A70184EC90E0C2
:1006F0009093AA018093A90180EC90E09093AC01C3
:100700008093AB0181EC90E09093AE018093AD01BA
:1007100086EC90E09093B0018093AF0184E08093E9
:10072000B10183E08093B20187E08093B30185E05B
:100730008093B40181E08093B50108950F931F93D6
:10074000CF93DF938C01EB0109C02196D801ED9185
:10075000FC910190F081E02DC80109956881662324
:10076000A1F7DF91CF911F910F910895EF92FF9222
:100770000F931F93CF93DF938C017B01EA010CC091
:10078000D7016D917D01D801ED91FC910190F0812F
:10079000E02DC80109952197209791F7DF91CF911E
:1007A0001F910F91FF90EF900895DC01ED91FC9166
:1007B0000280F381E02D099508950F931F938C011A
:1007C000DC01ED91FC910190F081E02D6DE0099547
:1007D000D801ED91FC910190F081E02DC8016AE013
:1007E00009951F910F9108950F931F938C010E94FB
:1007F000D503C8010E94DD031F910F910895629FE8
:10080000D001739FF001829FE00DF11D649FE00D08
:10081000F11D929FF00D839FF00D749FF00D659F69
:10082000F00D9927729FB00DE11DF91F639FB00D68
:10083000E11DF91FBD01CF011124089597FB092E79
:1008400007260AD077FD04D049D006D000201AF43C
:10085000709561957F4F0895F6F7909581959F4F1C
:100860000895A1E21A2EAA1BBB1BFD010DC0AA1FF1
:10087000BB1FEE1FFF1FA217B307E407F50720F009
:10088000A21BB30BE40BF50B661F771F881F991F84
:100890001A9469F760957095809590959B01AC01CD
:1008A000BD01CF01089597FB092E05260ED057FDF7
:1008B00004D0D7DF0AD0001C38F45095409530950D
:1008C00021953F4F4F4F5F4F0895F6F790958095D4
:1008D000709561957F4F8F4F9F4F0895AA1BBB1B4B
:1008E00051E107C0AA1FBB1FA617B70710F0A61B30
:1008F000B70B881F991F5A95A9F780959095BC0151
:10090000CD010895EE0FFF1F0590F491E02D09949D
:04091000F894FFCF89
:1009140031003200010000000051039E03B60300C1
:00000001FF
