:100000000C9435000C945D000C945D000C945D0024
:100010000C945D000C945D000C945D000C945D00EC
:100020000C945D000C945D000C945D000C945D00DC
:100030000C945D000C945D000C945D000C945D00CC
:100040000C9480000C945D000C9402010C945D00F3
:100050000C945D000C945D000C945D000C945D00AC
:100060000C945D000C945D004B0211241FBECFEF79
:10007000D8E0DEBFCDBF11E0A0E0B1E0E2EEF6E0F7
:1000800002C005900D92A632B107D9F711E0A6E2A1
:10009000B1E001C01D92A63CB107E1F710E0CAE64D
:1000A000D0E004C02297FE010E946B03C836D1073E
:1000B000C9F70E9479000C946F030C94000083EB45
:1000C00091E060E071E00E94DB0208950F931F93BE
:1000D00003EB11E0C80140E855E260E070E00E94E7
:1000E0003F01C80160E071E00E94DB021F910F91A7
:1000F00008950E94C8000E9466000E945F00FDCF24
:100100001F920F920FB60F9211242F933F938F934C
:100110009F93AF93BF9380912A0190912B01A0915F
:100120002C01B0912D0130912E010196A11DB11D20
:10013000232F2D5F2D3720F02D570196A11DB11DC6
:1001400020932E0180932A0190932B01A0932C01E0
:10015000B0932D018091260190912701A091280153
:10016000B09129010196A11DB11D809326019093A4
:100170002701A0932801B0932901BF91AF919F91CE
:100180008F913F912F910F900FBE0F901F90189558
:10019000789484B5826084BD84B5816084BD85B562
:1001A000826085BD85B5816085BDEEE6F0E0808129
:1001B00081608083E1E8F0E08081826080838081DB
:1001C00081608083E0E8F0E0808181608083E1EB02
:1001D000F0E0808184608083E0EBF0E080818160EA
:1001E0008083EAE7F0E080818460808380818260A0
:1001F0008083808181608083808180688083109289
:10020000C10008951F920F920FB60F9211242F93E1
:100210003F934F935F936F937F938F939F93AF938E
:10022000BF93EF93FF934091C600E091AF01F0912F
:10023000B001CF01019660E870E00E9405039C01C7
:100240008091B1019091B2012817390739F0E15D31
:10025000FE4F40833093B0012093AF01FF91EF91A7
:10026000BF91AF919F918F917F916F915F914F91CE
:100270003F912F910F900FBE0F901F9018955F9296
:100280006F927F928F929F92AF92BF92CF92DF92A6
:10029000EF92FF920F931F93CF93DF93EC013A01FC
:1002A0004B01413482E458078FE0680780E078070B
:1002B0000CF07FC060E874E88EE190E0A401930147
:1002C0000E943A032150304040405040CA01B901D9
:1002D00022E030E040E050E00E943A0359016A0118
:1002E000A6019501209530954095509594E0220FF8
:1002F000331F441F551F9A95D1F760E074E284EFD5
:1003000090E00E943A03CA01B9012FEF30E040E0CB
:1003100050E00E94E602A40193010E943A03C90141
:1003200081509F4F181619061CF4522E5A9403C080
:1003300055245394521A60E079E08DE390E0A401D3
:1003400093010E943A032150304040405040CA017E
:10035000B90122E030E040E050E00E943A032095ED
:1003600030954095509583E0220F331F441F551F51
:100370008A95D1F760E074E284EF90E00E943A033E
:10038000CA01B9012FEF30E040E050E00E94E602E0
:10039000A40193010E943A03C90181509F4F18168E
:1003A00019061CF4822F815002C081E0821B851542
:1003B00000F5E885F98581E090E00A8802C0880FA1
:1003C000991F0A94E2F7808360E079E08DE390E082
:1003D000A40193010E943A03215030404040504014
:1003E000CA01B90122E030E040E050E00E943A0347
:1003F00004C0E885F98510829501EC81FD81308388
:10040000EE81FF812083EA85FB85208141E050E079
:10041000CA010E8402C0880F991F0A94E2F7282BA4
:100420002083EA85FB852081CA010F8402C0880FE2
:10043000991F0A94E2F7282B2083EA85FB858081A7
:10044000088802C0440F551F0A94E2F7842B80836A
:10045000DF91CF911F910F91FF90EF90DF90CF90A0
:10046000BF90AF909F908F907F906F905F90089516
:10047000FC01A085B18521898C9190E0022E02C0FB
:10048000959587950A94E2F780FFF6CF0484F58569
:10049000E02D6083089580E291E09093B401809311
:1004A000B3018FE291E09093B6018093B50185ECA2
:1004B00090E09093B8018093B70184EC90E0909322
:1004C000BA018093B90180EC90E09093BC018093D5
:1004D000BB0181EC90E09093BE018093BD0186EC5E
:1004E00090E09093C0018093BF0184E08093C101AC
:1004F00083E08093C20187E08093C30185E080930D
:10050000C40181E08093C50108950F931F93CF9399
:10051000DF938C01EB0109C02196D801ED91FC918C
:100520000190F081E02DC801099568816623A1F74B
:10053000DF91CF911F910F910895EF92FF920F934A
:100540001F93CF93DF938C017B01EA010CC0D7018D
:100550006D917D01D801ED91FC910190F081E02D2C
:10056000C80109952197209791F7DF91CF911F91AD
:100570000F91FF90EF900895DC01ED91FC910280C6
:10058000F381E02D099508950F931F938C01DC01F1
:10059000ED91FC910190F081E02D6DE00995D8017D
:1005A000ED91FC910190F081E02DC8016AE0099580
:1005B0001F910F9108950F931F938C010E94BC020D
:1005C000C8010E94C4021F910F910895629FD0013B
:1005D000739FF001829FE00DF11D649FE00DF11DFE
:1005E000929FF00D839FF00D749FF00D659FF00DAD
:1005F0009927729FB00DE11DF91F639FB00DE11D9A
:10060000F91FBD01CF011124089597FB092E07267C
:100610000AD077FD04D049D006D000201AF4709596
:1006200061957F4F0895F6F7909581959F4F0895B6
:10063000A1E21A2EAA1BBB1BFD010DC0AA1FBB1FE6
:10064000EE1FFF1FA217B307E407F50720F0A21B58
:10065000B30BE40BF50B661F771F881F991F1A94C5
:1006600069F760957095809590959B01AC01BD01EF
:10067000CF01089597FB092E05260ED057FD04D013
:10068000D7DF0AD0001C38F450954095309521955D
:100690003F4F4F4F5F4F0895F6F7909580957095B7
:1006A00061957F4F8F4F9F4F0895AA1BBB1B51E150
:1006B00007C0AA1FBB1FA617B70710F0A61BB70BD2
:1006C000881F991F5A95A9F780959095BC01CD0177
:1006D0000895EE0FFF1F0590F491E02D0994F89412
:0206E000FFCF4A
:1006E2004153434949205461626C65207E2043682E
:1006F20061726163746572204D61700000000000D8
:06070200380285029D0291
:00000001FF
