:100000000C9463000C9480000C9480000C9480008D
:100010000C9480000C9480000C9480000C94DD0102
:100020000C9480000C9480000C9480000C94760159
:100030000C9480000C9480000C940F010C948000B0
:100040000C9421040C9480000C9480000C9480008B
:100050000C9480000C9480000C9480000C94800020
:100060000C9480000C948000020100000000002429
:100070000027002A0000000000250028002B0000B7
:1000800000000023002600290004040404040404E2
:100090000402020202020203030303030301020437
:1000A00008102040800102040810200102040810FA
:1000B0002000000007000201000003040600000009
:1000C00000000000000011241FBECFEFD8E0DEBF0B
:1000D000CDBF11E0A0E0B1E0ECE9FCE002C005908A
:1000E0000D92A231B107D9F711E0A2E1B1E001C050
:1000F0001D92A733B107E1F70E941A040C944C0635
:100100000C940000DC0190912701933008F083C02B
:100110006C93E92FF0E0E859FF4F849111968C938E
:1001200011979F5F90932701813039F1823009F454
:100130004BC0882309F072C014BC15BC84B5826022
:1001400084BD85B5816085BD8C91282F30E0F90193
:10015000E757FF4FE491F0E0EE0FFF1FEB58FF4F22
:1001600085919491909317018093160123563F4FE8
:10017000F9018491809318010895109280001092E3
:10018000810080918100886080938100809181004E
:100190008160809381008C91282F30E0F901E7572E
:1001A000FF4FE491F0E0EE0FFF1FEB58FF4F8591FA
:1001B000949190931E0180931D0123563F4FF901A6
:1001C000849180931F0108951092B0001092B100A5
:1001D0008091B00082608093B0008091B100816016
:1001E0008093B1008C91282F30E0F901E757FF4F41
:1001F000E491F0E0EE0FFF1FEB58FF4F85919491D3
:10020000909325018093240123563F4FF901849157
:100210008093260108958FEF11968C9308951F9275
:100220000F920FB60F9211242F933F938F939F93AA
:10023000AF93BF93EF93FF938091120190911301BD
:10024000A0911401B0911501E0911601F0911701F0
:100250000097A105B105A9F120818091180130E036
:1002600090E028233923232B31F0908180911801CD
:100270008095892304C0808190911801892B808307
:100280008091120190911301A0911401B091150178
:10029000181619061A061B06E4F4809112019091B3
:1002A0001301A0911401B09115010197A109B109A1
:1002B0008093120190931301A0931401B093150140
:1002C00008C010926E00908180911801809589235A
:1002D0008083FF91EF91BF91AF919F918F913F915B
:1002E0002F910F900FBE0F901F9018951F920F9295
:1002F0000FB60F9211242F933F938F939F93AF9339
:10030000BF93EF93FF938091190190911A01A091EF
:100310001B01B0911C01E0911D01F0911E0100979D
:10032000A105B105A9F1208180911F0130E090E085
:1003300028233923232B31F0908180911F01809550
:10034000892304C0808190911F01892B8083809133
:10035000190190911A01A0911B01B0911C0118166E
:1003600019061A061B06E4F48091190190911A01EE
:10037000A0911B01B0911C010197A109B1098093C3
:10038000190190931A01A0931B01B0931C0108C09E
:1003900010926F00908180911F0180958923808346
:1003A000FF91EF91BF91AF919F918F913F912F91CD
:1003B0000F900FBE0F901F9018951F920F920FB6BF
:1003C0000F9211242F933F938F939F93AF93BF93DB
:1003D000EF93FF938091200190912101A091220140
:1003E000B0912301E0912401F09125010097A1052E
:1003F000B105A9F120818091260130E090E0282309
:100400003923232B31F09081809126018095892317
:1004100004C0808190912601892B808380912001E6
:1004200090912101A0912201B09123011816190683
:100430001A061B06E4F48091200190912101A091FD
:100440002201B09123010197A109B10980932001F4
:1004500090932101A0932201B093230108C0109230
:100460007000908180912601809589238083FF917F
:10047000EF91BF91AF919F918F913F912F910F90ED
:100480000FBE0F901F901895FC018181813039F0CB
:10049000823041F0882341F410926E0005C0109222
:1004A0006F0002C010927000808160E00E940B0516
:1004B0000895BF92CF92DF92EF92FF920F931F9316
:1004C000CF93DF93EC016B0179018A0189811816C2
:1004D0000CF0F0C0888161E00E94EB04B98082E0FA
:1004E000B81691F58BE7C816D10424F487E0809301
:1004F000B10035C085EFC816D10424F486E080939E
:10050000B10037C08AEEC81681E0D80634F485E021
:100510008093B100C0E8D0E03DC084EDC81683E010
:10052000D80624F484E08093B1002DC080E5C8167D
:100530008FE0D80634F483E08093B100C0E2D0E0CD
:1005400029C0B092B10024C0BB2019F0C1E0D0E0B6
:1005500021C08BE7C816D1042CF485E085BDC0E02E
:10056000D4E018C08AEEC81681E0D8062CF484E0E6
:1005700085BDC0E0D1E00EC080E5C8168FE0D8068A
:100580002CF483E085BDC0E4D0E004C082E085BDEA
:10059000C8E0D0E0E114F1040105110529F4EE24CE
:1005A000EA94FE2C870115C0B601660F771F8827D5
:1005B00077FD8095982FA80197010E94F00528EEFD
:1005C00033E040E050E00E940F06C901DA017C01EF
:1005D0008D0181E0B81659F182E0B81609F446C0E1
:1005E000BB2009F067C09601442737FD4095542F82
:1005F00060E072E18AE790E00E943106CA01B90129
:100600009E01442737FD4095542F0E94310621500A
:1006100027BDE0921201F092130100931401109390
:10062000150180916E00826080936E0043C0960138
:10063000442737FD4095542F60E072E18AE790E04F
:100640000E94310621503040309389002093880069
:10065000E0921901F0921A0100931B0110931C0102
:1006600080916F00826080936F0024C096014427C0
:1006700037FD4095542F60E072E18AE790E00E94D8
:100680003106CA01B9019E01442737FD4095542F18
:100690000E94310621502093B300E0922001F09295
:1006A0002101009322011093230180917000826048
:1006B00080937000DF91CF911F910F91FF90EF9089
:1006C000DF90CF90BF9008956F927F928F929F920C
:1006D000AF92BF92CF92DF92EF92FF920F931F9350
:1006E00082E00E94580590932B0180932A01892B68
:1006F00051F510922D0110922C011DC0EE0FFF1F1D
:10070000E050FF4F6081718188E291E028EE33E094
:1007100040E050E00E94590268EE73E080E090E013
:100720000E94690480912C0190912D010196909373
:100730002D0180932C01E0912C01F0912D01E730E7
:10074000F105E4F260C088E291E00E944402109258
:100750002D0110922C01A0ED6A2EA7E07A2E812C9B
:10076000912C4AC080E00E94CD0400D000D0AA277E
:1007700097FDA095BA2FEDB7FEB761827282838292
:100780009482BC01CD0120E030E040E050E0FFEF7A
:10079000EF2EF3E0FF2E012D112DECEDAE2EB12C3E
:1007A000C12CD12C0E94A7059B01AC01E0912C012A
:1007B000F0912D01EE0FFF1FE050FF4F318320839A
:1007C0000F900F900F900F9088E291E0B90128EE02
:1007D00033E040E050E00E94590268EE73E080E0B0
:1007E00090E00E94690480912C0190912D01019666
:1007F00090932D0180932C0180912C0190912D01DB
:1008000007970CF4AFCF1F910F91FF90EF90DF90FF
:10081000CF90BF90AF909F908F907F906F900895F2
:1008200082E060E00E94EB0488E291E068E00E94D0
:10083000820008950E9493040E9410040E946403A1
:10084000FDCF1F920F920FB60F9211242F933F935B
:100850008F939F93AF93BF93809132019091330117
:10086000A0913401B0913501309136010196A11D5E
:10087000B11D232F2D5F2D3720F02D570196A11D7F
:10088000B11D209336018093320190933301A093E0
:100890003401B093350180912E0190912F01A091E8
:1008A0003001B09131010196A11DB11D80932E013F
:1008B00090932F01A0933001B0933101BF91AF917C
:1008C0009F918F913F912F910F900FBE0F901F908E
:1008D0001895EF92FF920F931F937B018C018FB7B6
:1008E000F89440913201509133016091340170913C
:1008F00035018FBF2FB7F894809132019091330169
:10090000A0913401B09135012FBF841B950BA60B2C
:10091000B70BE816F9060A071B0760F71F910F913E
:10092000FF90EF900895789484B5826084BD84B57B
:10093000816084BD85B5826085BD85B5816085BDDA
:10094000EEE6F0E0808181608083E1E8F0E0808184
:1009500082608083808181608083E0E8F0E0808134
:1009600081608083E1EBF0E0808184608083E0EB54
:10097000F0E0808181608083EAE7F0E0808184603C
:100980008083808182608083808181608083808198
:10099000806880831092C10008958F70909110013B
:1009A0009295990F990F907C982B90937C00809151
:1009B0007A00806480937A0080917A0086FDFCCF73
:1009C0002091780040917900942F80E030E0282B2E
:1009D000392BC9010895282F30E0C90183569F4F54
:1009E000FC01949127573F4FF9018491882391F09E
:1009F000E82FF0E0EE0FFF1FE559FF4FA591B491EE
:100A0000662329F48C91909589238C9308958C9179
:100A1000892B8C930895482F50E0CA018F549F4F23
:100A2000FC012491CA0183569F4FFC0194914757C2
:100A30005F4FFA0134913323D1F1222331F1233076
:100A400021F4809180008F7705C0243031F48091AB
:100A500080008F7D8093800018C0213019F484B508
:100A60008F7704C0223021F484B58F7D84BD0DC002
:100A7000263021F48091B0008F7705C0273029F40B
:100A80008091B0008F7D8093B000E32FF0E0EE0FF7
:100A9000FF1FEB58FF4FA591B491662329F48C9169
:100AA000909589238C9308958C91892B8C9308952C
:100AB000682F70E0CB018F549F4FFC012491CB0134
:100AC00083569F4FFC01449167577F4FFB019491E0
:100AD000992319F420E030E038C0222331F123308B
:100AE00021F4809180008F7705C0243031F480910B
:100AF00080008F7D8093800018C0213019F484B568
:100B00008F7704C0223021F484B58F7D84BD0DC061
:100B1000263021F48091B0008F7705C0273029F46A
:100B20008091B0008F7D8093B000892F90E0880F76
:100B3000991F81589F4FFC01A591B4918C9120E0A1
:100B400030E0842311F021E030E0C90108952F92B4
:100B50003F924F925F926F927F928F929F92AF924D
:100B6000BF92CF92DF92EF92FF920F931F93DF938A
:100B7000CF93CDB7DEB73B014C0119012A016D8936
:100B80007E898F89988D6A197B098C099D09621A63
:100B9000730A840A950AA40193010E94F005E218E1
:100BA000F30804091509A80197010E9431062A0DCE
:100BB0003B1D4C1D5D1DB901CA01CF91DF911F91F5
:100BC0000F91FF90EF90DF90CF90BF90AF909F90EC
:100BD0008F907F906F905F904F903F902F900895EF
:100BE000629FD001739FF001829FE00DF11D649F11
:100BF000E00DF11D929FF00D839FF00D749FF00D9D
:100C0000659FF00D9927729FB00DE11DF91F639F3D
:100C1000B00DE11DF91FBD01CF0111240895A1E21E
:100C20001A2EAA1BBB1BFD010DC0AA1FBB1FEE1F66
:100C3000FF1FA217B307E407F50720F0A21BB30BB1
:100C4000E40BF50B661F771F881F991F1A9469F72D
:100C500060957095809590959B01AC01BD01CF0189
:100C6000089597FB092E05260ED057FD04D0D7DF37
:100C70000AD0001C38F450954095309521953F4F8F
:100C80004F4F5F4F0895F6F7909580957095619559
:0C0C90007F4F8F4F9F4F0895F894FFCFC7
:100C9C00EE01B8010601EE01FB047004F603BC037F
:020CAC00010045
:00000001FF
